S0120000464952452D414C41524D2E7372656352
S11300000C9434000C9449000C9449000C9449005D
S11300100C9449000C9449000C9449000C94490038
S11300200C9449000C9449000C9449000C94490028
S11300300C9449000C9449000C9449000C94490018
S11300400C9449000C9449000C9449000C94490008
S11300500C9449000C944B000C9449000C944900F6
S11300600C9449000C94490011241FBECFEFD8E032
S1130070DEBFCDBF11E0A0E0B1E0EEE3F1E002C0ED
S113008005900D92A230B107D9F70E9461000C943B
S11300909D000C9400001F920F920FB60F92112432
S11300A08F939F93809178009091790090930101B0
S11300B0809300019F918F910F900FBE0F901F901E
S11300C0189517B880EC84B98FEF8AB918B81092D4
S11300D07C008FEE80937A0083E080937B009EE324
S11300E090937E0092E094BD85BD89EF87BD109208
S11300F06E007894809100019091010189369340BB
S113010018F080E485B9F6CF8FEF91EE24E08150AA
S113011090402040E1F700C0000080E885B984E009
S11301208BB98FEF91EE24E0815090402040E1F7AD
S111013000C0000015B81BB8DDCFF894FFCF57
S105013EFF03B9
S9030000FC
